{"contracts/Voting.sol":{"Voting":{"abi":[{"inputs":[{"internalType":"uint256","name":"_durationInMinutes","type":"uint256"}],"stateMutability":"nonpayable","type":"constructor"},{"inputs":[{"internalType":"string","name":"_candidateNames","type":"string"}],"name":"addCandidate","outputs":[],"stateMutability":"nonpayable","type":"function"},{"inputs":[{"internalType":"uint256","name":"","type":"uint256"}],"name":"candidates","outputs":[{"internalType":"string","name":"name","type":"string"},{"internalType":"uint256","name":"voteCount","type":"uint256"}],"stateMutability":"view","type":"function"},{"inputs":[],"name":"getAllVotesOfCandiates","outputs":[{"components":[{"internalType":"string","name":"name","type":"string"},{"internalType":"uint256","name":"voteCount","type":"uint256"}],"internalType":"struct Voting.Candidate[]","name":"","type":"tuple[]"}],"stateMutability":"view","type":"function"},{"inputs":[],"name":"getRemainingTime","outputs":[{"internalType":"uint256","name":"","type":"uint256"}],"stateMutability":"view","type":"function"},{"inputs":[],"name":"getVotingStatus","outputs":[{"internalType":"bool","name":"","type":"bool"}],"stateMutability":"view","type":"function"},{"inputs":[{"internalType":"uint256","name":"_candidateIndex","type":"uint256"}],"name":"vote","outputs":[],"stateMutability":"nonpayable","type":"function"},{"inputs":[{"internalType":"address","name":"","type":"address"}],"name":"voters","outputs":[{"internalType":"bool","name":"","type":"bool"}],"stateMutability":"view","type":"function"},{"inputs":[],"name":"votingEnd","outputs":[{"internalType":"uint256","name":"","type":"uint256"}],"stateMutability":"view","type":"function"},{"inputs":[],"name":"votingStart","outputs":[{"internalType":"uint256","name":"","type":"uint256"}],"stateMutability":"view","type":"function"}],"evm":{"bytecode":{"linkReferences":{},"object":"60803461009957601f61093838819003918201601f19168301916001600160401b0383118484101761009e57808492602094604052833981010312610099575142600355603c810290808204603c149015171561008357420180421161008357600455600180546001600160a01b0319163317905560405161088390816100b58239f35b634e487b7160e01b600052601160045260246000fd5b600080fd5b634e487b7160e01b600052604160045260246000fdfe608060408181526004918236101561001657600080fd5b600092833560e01c9182630121b93f1461050357508163101158af146104e45781633477ee2e1461048b578163462e91ec146102725781634d6bda5f14610147578163581c281c1461010f57816385a38635146100f1578163a3ec138d146100ae575063efb98bcf1461008857600080fd5b346100aa57816003193601126100aa576020906100a36107cb565b9051908152f35b5080fd5b9050346100ed5760203660031901126100ed57356001600160a01b038116908190036100ed57818360ff92602095526002855220541690519015158152f35b8280fd5b9050346100ed57826003193601126100ed5760209250549051908152f35b919050346100ed57826003193601126100ed5760209250600354421015918261013c575b50519015158152f35b544210915038610133565b839150346100aa57816003193601126100aa5781549067ffffffffffffffff821161025f5750825191602092610182848460051b01826106c3565b82815281805283810192827f290decd9548b62a8d60345a988386fc84ba6bc95484008f6362f93160ef3e563855b83831061022557505050508451938085019181865251809252858501868360051b8701019493965b8388106101e55786860387f35b90919293948380600192603f198a8203018652885190828061020e84518985528985019061078b565b9301519101529701930197019690939291936101d8565b6002886001928b9a97989a5161023a81610691565b610243866106e5565b81528486015483820152815201920192019190969493966101b0565b634e487b7160e01b835260419052602482fd5b8383346100aa576020806003193601126100ed57833567ffffffffffffffff808211610487573660238301121561048757818601359381851161047457805194601f19936102c7601f830186168701886106c3565b8187523660248383010111610470578188926024889301838a01378701015251936102f185610691565b8452828401918583528554936801000000000000000085101561045d5761031e600195868101895561060a565b96909661044b5751908151938411610438579083929161033e8854610657565b601f81116103e4575b508092601f85116001146103845750508792610379575b5050600019600383901b1c191690831b1783555b5191015580f35b01519050868061035e565b87959392919316888a52838a20938a905b8282106103cb57505084116103b2575b505050811b018355610372565b015160001960f88460031b161c191690558680806103a5565b8484015186558997909501949384019390810190610395565b9091929350878952818920601f860160051c81019183871061042e575b869594939291601f8a920160051c01915b828110610420575050610347565b8b8155879650899101610412565b9091508190610401565b634e487b7160e01b885260418952602488fd5b634e487b7160e01b8852878952602488fd5b634e487b7160e01b875260418852602487fd5b8780fd5b634e487b7160e01b865260418752602486fd5b8480fd5b839150346100aa5760203660031901126100aa57359080548210156104e157506104b49061060a565b509060016104c1836106e5565b9201546104d7825193838594855284019061078b565b9060208301520390f35b80fd5b5050346100aa57816003193601126100aa576020906003549051908152f35b9091503461060657602036600319011261060657813590338552600260205260ff84862054166105c5575083548110156105825761054260019161060a565b500180549091600019821461056f5750600101905533825260026020528120600160ff1982541617905580f35b634e487b7160e01b855260119052602484fd5b506020606492519162461bcd60e51b8352820152601860248201527f496e76616c69642063616e64696461746520696e6465782e00000000000000006044820152fd5b62461bcd60e51b8152602083820152601760248201527f596f75206861766520616c726561647920766f7465642e0000000000000000006044820152606490fd5b8380fd5b9060009182548110156106435782805260011b7f290decd9548b62a8d60345a988386fc84ba6bc95484008f6362f93160ef3e563019190565b634e487b7160e01b83526032600452602483fd5b90600182811c92168015610687575b602083101461067157565b634e487b7160e01b600052602260045260246000fd5b91607f1691610666565b6040810190811067ffffffffffffffff8211176106ad57604052565b634e487b7160e01b600052604160045260246000fd5b90601f8019910116810190811067ffffffffffffffff8211176106ad57604052565b90604051918260008254926106f984610657565b9081845260019485811690816000146107685750600114610725575b5050610723925003836106c3565b565b9093915060005260209081600020936000915b81831061075057505061072393508201013880610715565b85548884018501529485019487945091830191610738565b91505061072394506020925060ff191682840152151560051b8201013880610715565b919082519283825260005b8481106107b7575050826000602080949584010152601f8019910116010190565b602081830181015184830182015201610796565b60035442106108085760045480421015610802574281039081116107ec5790565b634e487b7160e01b600052601160045260246000fd5b50600090565b60405162461bcd60e51b815260206004820152601b60248201527f566f74696e6720686173206e6f742073746172746564207965742e00000000006044820152606490fdfea264697066735822122050f50d4e28840fa59a2960b045722d93678cd816e3f0b32a892138ba88f95bc464736f6c63430008110033","opcodes":"PUSH1 0x80 CALLVALUE PUSH2 0x99 JUMPI PUSH1 0x1F PUSH2 0x938 CODESIZE DUP2 SWAP1 SUB SWAP2 DUP3 ADD PUSH1 0x1F NOT AND DUP4 ADD SWAP2 PUSH1 0x1 PUSH1 0x1 PUSH1 0x40 SHL SUB DUP4 GT DUP5 DUP5 LT OR PUSH2 0x9E JUMPI DUP1 DUP5 SWAP3 PUSH1 0x20 SWAP5 PUSH1 0x40 MSTORE DUP4 CODECOPY DUP2 ADD SUB SLT PUSH2 0x99 JUMPI MLOAD TIMESTAMP PUSH1 0x3 SSTORE PUSH1 0x3C DUP2 MUL SWAP1 DUP1 DUP3 DIV PUSH1 0x3C EQ SWAP1 ISZERO OR ISZERO PUSH2 0x83 JUMPI TIMESTAMP ADD DUP1 TIMESTAMP GT PUSH2 0x83 JUMPI PUSH1 0x4 SSTORE PUSH1 0x1 DUP1 SLOAD PUSH1 0x1 PUSH1 0x1 PUSH1 0xA0 SHL SUB NOT AND CALLER OR SWAP1 SSTORE PUSH1 0x40 MLOAD PUSH2 0x883 SWAP1 DUP2 PUSH2 0xB5 DUP3 CODECOPY RETURN JUMPDEST PUSH4 0x4E487B71 PUSH1 0xE0 SHL PUSH1 0x0 MSTORE PUSH1 0x11 PUSH1 0x4 MSTORE PUSH1 0x24 PUSH1 0x0 REVERT JUMPDEST PUSH1 0x0 DUP1 REVERT JUMPDEST PUSH4 0x4E487B71 PUSH1 0xE0 SHL PUSH1 0x0 MSTORE PUSH1 0x41 PUSH1 0x4 MSTORE PUSH1 0x24 PUSH1 0x0 REVERT INVALID PUSH1 0x80 PUSH1 0x40 DUP2 DUP2 MSTORE PUSH1 0x4 SWAP2 DUP3 CALLDATASIZE LT ISZERO PUSH2 0x16 JUMPI PUSH1 0x0 DUP1 REVERT JUMPDEST PUSH1 0x0 SWAP3 DUP4 CALLDATALOAD PUSH1 0xE0 SHR SWAP2 DUP3 PUSH4 0x121B93F EQ PUSH2 0x503 JUMPI POP DUP2 PUSH4 0x101158AF EQ PUSH2 0x4E4 JUMPI DUP2 PUSH4 0x3477EE2E EQ PUSH2 0x48B JUMPI DUP2 PUSH4 0x462E91EC EQ PUSH2 0x272 JUMPI DUP2 PUSH4 0x4D6BDA5F EQ PUSH2 0x147 JUMPI DUP2 PUSH4 0x581C281C EQ PUSH2 0x10F JUMPI DUP2 PUSH4 0x85A38635 EQ PUSH2 0xF1 JUMPI DUP2 PUSH4 0xA3EC138D EQ PUSH2 0xAE JUMPI POP PUSH4 0xEFB98BCF EQ PUSH2 0x88 JUMPI PUSH1 0x0 DUP1 REVERT JUMPDEST CALLVALUE PUSH2 0xAA JUMPI DUP2 PUSH1 0x3 NOT CALLDATASIZE ADD SLT PUSH2 0xAA JUMPI PUSH1 0x20 SWAP1 PUSH2 0xA3 PUSH2 0x7CB JUMP JUMPDEST SWAP1 MLOAD SWAP1 DUP2 MSTORE RETURN JUMPDEST POP DUP1 REVERT JUMPDEST SWAP1 POP CALLVALUE PUSH2 0xED JUMPI PUSH1 0x20 CALLDATASIZE PUSH1 0x3 NOT ADD SLT PUSH2 0xED JUMPI CALLDATALOAD PUSH1 0x1 PUSH1 0x1 PUSH1 0xA0 SHL SUB DUP2 AND SWAP1 DUP2 SWAP1 SUB PUSH2 0xED JUMPI DUP2 DUP4 PUSH1 0xFF SWAP3 PUSH1 0x20 SWAP6 MSTORE PUSH1 0x2 DUP6 MSTORE KECCAK256 SLOAD AND SWAP1 MLOAD SWAP1 ISZERO ISZERO DUP2 MSTORE RETURN JUMPDEST DUP3 DUP1 REVERT JUMPDEST SWAP1 POP CALLVALUE PUSH2 0xED JUMPI DUP3 PUSH1 0x3 NOT CALLDATASIZE ADD SLT PUSH2 0xED JUMPI PUSH1 0x20 SWAP3 POP SLOAD SWAP1 MLOAD SWAP1 DUP2 MSTORE RETURN JUMPDEST SWAP2 SWAP1 POP CALLVALUE PUSH2 0xED JUMPI DUP3 PUSH1 0x3 NOT CALLDATASIZE ADD SLT PUSH2 0xED JUMPI PUSH1 0x20 SWAP3 POP PUSH1 0x3 SLOAD TIMESTAMP LT ISZERO SWAP2 DUP3 PUSH2 0x13C JUMPI JUMPDEST POP MLOAD SWAP1 ISZERO ISZERO DUP2 MSTORE RETURN JUMPDEST SLOAD TIMESTAMP LT SWAP2 POP CODESIZE PUSH2 0x133 JUMP JUMPDEST DUP4 SWAP2 POP CALLVALUE PUSH2 0xAA JUMPI DUP2 PUSH1 0x3 NOT CALLDATASIZE ADD SLT PUSH2 0xAA JUMPI DUP2 SLOAD SWAP1 PUSH8 0xFFFFFFFFFFFFFFFF DUP3 GT PUSH2 0x25F JUMPI POP DUP3 MLOAD SWAP2 PUSH1 0x20 SWAP3 PUSH2 0x182 DUP5 DUP5 PUSH1 0x5 SHL ADD DUP3 PUSH2 0x6C3 JUMP JUMPDEST DUP3 DUP2 MSTORE DUP2 DUP1 MSTORE DUP4 DUP2 ADD SWAP3 DUP3 PUSH32 0x290DECD9548B62A8D60345A988386FC84BA6BC95484008F6362F93160EF3E563 DUP6 JUMPDEST DUP4 DUP4 LT PUSH2 0x225 JUMPI POP POP POP POP DUP5 MLOAD SWAP4 DUP1 DUP6 ADD SWAP2 DUP2 DUP7 MSTORE MLOAD DUP1 SWAP3 MSTORE DUP6 DUP6 ADD DUP7 DUP4 PUSH1 0x5 SHL DUP8 ADD ADD SWAP5 SWAP4 SWAP7 JUMPDEST DUP4 DUP9 LT PUSH2 0x1E5 JUMPI DUP7 DUP7 SUB DUP8 RETURN JUMPDEST SWAP1 SWAP2 SWAP3 SWAP4 SWAP5 DUP4 DUP1 PUSH1 0x1 SWAP3 PUSH1 0x3F NOT DUP11 DUP3 SUB ADD DUP7 MSTORE DUP9 MLOAD SWAP1 DUP3 DUP1 PUSH2 0x20E DUP5 MLOAD DUP10 DUP6 MSTORE DUP10 DUP6 ADD SWAP1 PUSH2 0x78B JUMP JUMPDEST SWAP4 ADD MLOAD SWAP2 ADD MSTORE SWAP8 ADD SWAP4 ADD SWAP8 ADD SWAP7 SWAP1 SWAP4 SWAP3 SWAP2 SWAP4 PUSH2 0x1D8 JUMP JUMPDEST PUSH1 0x2 DUP9 PUSH1 0x1 SWAP3 DUP12 SWAP11 SWAP8 SWAP9 SWAP11 MLOAD PUSH2 0x23A DUP2 PUSH2 0x691 JUMP JUMPDEST PUSH2 0x243 DUP7 PUSH2 0x6E5 JUMP JUMPDEST DUP2 MSTORE DUP5 DUP7 ADD SLOAD DUP4 DUP3 ADD MSTORE DUP2 MSTORE ADD SWAP3 ADD SWAP3 ADD SWAP2 SWAP1 SWAP7 SWAP5 SWAP4 SWAP7 PUSH2 0x1B0 JUMP JUMPDEST PUSH4 0x4E487B71 PUSH1 0xE0 SHL DUP4 MSTORE PUSH1 0x41 SWAP1 MSTORE PUSH1 0x24 DUP3 REVERT JUMPDEST DUP4 DUP4 CALLVALUE PUSH2 0xAA JUMPI PUSH1 0x20 DUP1 PUSH1 0x3 NOT CALLDATASIZE ADD SLT PUSH2 0xED JUMPI DUP4 CALLDATALOAD PUSH8 0xFFFFFFFFFFFFFFFF DUP1 DUP3 GT PUSH2 0x487 JUMPI CALLDATASIZE PUSH1 0x23 DUP4 ADD SLT ISZERO PUSH2 0x487 JUMPI DUP2 DUP7 ADD CALLDATALOAD SWAP4 DUP2 DUP6 GT PUSH2 0x474 JUMPI DUP1 MLOAD SWAP5 PUSH1 0x1F NOT SWAP4 PUSH2 0x2C7 PUSH1 0x1F DUP4 ADD DUP7 AND DUP8 ADD DUP9 PUSH2 0x6C3 JUMP JUMPDEST DUP2 DUP8 MSTORE CALLDATASIZE PUSH1 0x24 DUP4 DUP4 ADD ADD GT PUSH2 0x470 JUMPI DUP2 DUP9 SWAP3 PUSH1 0x24 DUP9 SWAP4 ADD DUP4 DUP11 ADD CALLDATACOPY DUP8 ADD ADD MSTORE MLOAD SWAP4 PUSH2 0x2F1 DUP6 PUSH2 0x691 JUMP JUMPDEST DUP5 MSTORE DUP3 DUP5 ADD SWAP2 DUP6 DUP4 MSTORE DUP6 SLOAD SWAP4 PUSH9 0x10000000000000000 DUP6 LT ISZERO PUSH2 0x45D JUMPI PUSH2 0x31E PUSH1 0x1 SWAP6 DUP7 DUP2 ADD DUP10 SSTORE PUSH2 0x60A JUMP JUMPDEST SWAP7 SWAP1 SWAP7 PUSH2 0x44B JUMPI MLOAD SWAP1 DUP2 MLOAD SWAP4 DUP5 GT PUSH2 0x438 JUMPI SWAP1 DUP4 SWAP3 SWAP2 PUSH2 0x33E DUP9 SLOAD PUSH2 0x657 JUMP JUMPDEST PUSH1 0x1F DUP2 GT PUSH2 0x3E4 JUMPI JUMPDEST POP DUP1 SWAP3 PUSH1 0x1F DUP6 GT PUSH1 0x1 EQ PUSH2 0x384 JUMPI POP POP DUP8 SWAP3 PUSH2 0x379 JUMPI JUMPDEST POP POP PUSH1 0x0 NOT PUSH1 0x3 DUP4 SWAP1 SHL SHR NOT AND SWAP1 DUP4 SHL OR DUP4 SSTORE JUMPDEST MLOAD SWAP2 ADD SSTORE DUP1 RETURN JUMPDEST ADD MLOAD SWAP1 POP DUP7 DUP1 PUSH2 0x35E JUMP JUMPDEST DUP8 SWAP6 SWAP4 SWAP3 SWAP2 SWAP4 AND DUP9 DUP11 MSTORE DUP4 DUP11 KECCAK256 SWAP4 DUP11 SWAP1 JUMPDEST DUP3 DUP3 LT PUSH2 0x3CB JUMPI POP POP DUP5 GT PUSH2 0x3B2 JUMPI JUMPDEST POP POP POP DUP2 SHL ADD DUP4 SSTORE PUSH2 0x372 JUMP JUMPDEST ADD MLOAD PUSH1 0x0 NOT PUSH1 0xF8 DUP5 PUSH1 0x3 SHL AND SHR NOT AND SWAP1 SSTORE DUP7 DUP1 DUP1 PUSH2 0x3A5 JUMP JUMPDEST DUP5 DUP5 ADD MLOAD DUP7 SSTORE DUP10 SWAP8 SWAP1 SWAP6 ADD SWAP5 SWAP4 DUP5 ADD SWAP4 SWAP1 DUP2 ADD SWAP1 PUSH2 0x395 JUMP JUMPDEST SWAP1 SWAP2 SWAP3 SWAP4 POP DUP8 DUP10 MSTORE DUP2 DUP10 KECCAK256 PUSH1 0x1F DUP7 ADD PUSH1 0x5 SHR DUP2 ADD SWAP2 DUP4 DUP8 LT PUSH2 0x42E JUMPI JUMPDEST DUP7 SWAP6 SWAP5 SWAP4 SWAP3 SWAP2 PUSH1 0x1F DUP11 SWAP3 ADD PUSH1 0x5 SHR ADD SWAP2 JUMPDEST DUP3 DUP2 LT PUSH2 0x420 JUMPI POP POP PUSH2 0x347 JUMP JUMPDEST DUP12 DUP2 SSTORE DUP8 SWAP7 POP DUP10 SWAP2 ADD PUSH2 0x412 JUMP JUMPDEST SWAP1 SWAP2 POP DUP2 SWAP1 PUSH2 0x401 JUMP JUMPDEST PUSH4 0x4E487B71 PUSH1 0xE0 SHL DUP9 MSTORE PUSH1 0x41 DUP10 MSTORE PUSH1 0x24 DUP9 REVERT JUMPDEST PUSH4 0x4E487B71 PUSH1 0xE0 SHL DUP9 MSTORE DUP8 DUP10 MSTORE PUSH1 0x24 DUP9 REVERT JUMPDEST PUSH4 0x4E487B71 PUSH1 0xE0 SHL DUP8 MSTORE PUSH1 0x41 DUP9 MSTORE PUSH1 0x24 DUP8 REVERT JUMPDEST DUP8 DUP1 REVERT JUMPDEST PUSH4 0x4E487B71 PUSH1 0xE0 SHL DUP7 MSTORE PUSH1 0x41 DUP8 MSTORE PUSH1 0x24 DUP7 REVERT JUMPDEST DUP5 DUP1 REVERT JUMPDEST DUP4 SWAP2 POP CALLVALUE PUSH2 0xAA JUMPI PUSH1 0x20 CALLDATASIZE PUSH1 0x3 NOT ADD SLT PUSH2 0xAA JUMPI CALLDATALOAD SWAP1 DUP1 SLOAD DUP3 LT ISZERO PUSH2 0x4E1 JUMPI POP PUSH2 0x4B4 SWAP1 PUSH2 0x60A JUMP JUMPDEST POP SWAP1 PUSH1 0x1 PUSH2 0x4C1 DUP4 PUSH2 0x6E5 JUMP JUMPDEST SWAP3 ADD SLOAD PUSH2 0x4D7 DUP3 MLOAD SWAP4 DUP4 DUP6 SWAP5 DUP6 MSTORE DUP5 ADD SWAP1 PUSH2 0x78B JUMP JUMPDEST SWAP1 PUSH1 0x20 DUP4 ADD MSTORE SUB SWAP1 RETURN JUMPDEST DUP1 REVERT JUMPDEST POP POP CALLVALUE PUSH2 0xAA JUMPI DUP2 PUSH1 0x3 NOT CALLDATASIZE ADD SLT PUSH2 0xAA JUMPI PUSH1 0x20 SWAP1 PUSH1 0x3 SLOAD SWAP1 MLOAD SWAP1 DUP2 MSTORE RETURN JUMPDEST SWAP1 SWAP2 POP CALLVALUE PUSH2 0x606 JUMPI PUSH1 0x20 CALLDATASIZE PUSH1 0x3 NOT ADD SLT PUSH2 0x606 JUMPI DUP2 CALLDATALOAD SWAP1 CALLER DUP6 MSTORE PUSH1 0x2 PUSH1 0x20 MSTORE PUSH1 0xFF DUP5 DUP7 KECCAK256 SLOAD AND PUSH2 0x5C5 JUMPI POP DUP4 SLOAD DUP2 LT ISZERO PUSH2 0x582 JUMPI PUSH2 0x542 PUSH1 0x1 SWAP2 PUSH2 0x60A JUMP JUMPDEST POP ADD DUP1 SLOAD SWAP1 SWAP2 PUSH1 0x0 NOT DUP3 EQ PUSH2 0x56F JUMPI POP PUSH1 0x1 ADD SWAP1 SSTORE CALLER DUP3 MSTORE PUSH1 0x2 PUSH1 0x20 MSTORE DUP2 KECCAK256 PUSH1 0x1 PUSH1 0xFF NOT DUP3 SLOAD AND OR SWAP1 SSTORE DUP1 RETURN JUMPDEST PUSH4 0x4E487B71 PUSH1 0xE0 SHL DUP6 MSTORE PUSH1 0x11 SWAP1 MSTORE PUSH1 0x24 DUP5 REVERT JUMPDEST POP PUSH1 0x20 PUSH1 0x64 SWAP3 MLOAD SWAP2 PUSH3 0x461BCD PUSH1 0xE5 SHL DUP4 MSTORE DUP3 ADD MSTORE PUSH1 0x18 PUSH1 0x24 DUP3 ADD MSTORE PUSH32 0x496E76616C69642063616E64696461746520696E6465782E0000000000000000 PUSH1 0x44 DUP3 ADD MSTORE REVERT JUMPDEST PUSH3 0x461BCD PUSH1 0xE5 SHL DUP2 MSTORE PUSH1 0x20 DUP4 DUP3 ADD MSTORE PUSH1 0x17 PUSH1 0x24 DUP3 ADD MSTORE PUSH32 0x596F75206861766520616C726561647920766F7465642E000000000000000000 PUSH1 0x44 DUP3 ADD MSTORE PUSH1 0x64 SWAP1 REVERT JUMPDEST DUP4 DUP1 REVERT JUMPDEST SWAP1 PUSH1 0x0 SWAP2 DUP3 SLOAD DUP2 LT ISZERO PUSH2 0x643 JUMPI DUP3 DUP1 MSTORE PUSH1 0x1 SHL PUSH32 0x290DECD9548B62A8D60345A988386FC84BA6BC95484008F6362F93160EF3E563 ADD SWAP2 SWAP1 JUMP JUMPDEST PUSH4 0x4E487B71 PUSH1 0xE0 SHL DUP4 MSTORE PUSH1 0x32 PUSH1 0x4 MSTORE PUSH1 0x24 DUP4 REVERT JUMPDEST SWAP1 PUSH1 0x1 DUP3 DUP2 SHR SWAP3 AND DUP1 ISZERO PUSH2 0x687 JUMPI JUMPDEST PUSH1 0x20 DUP4 LT EQ PUSH2 0x671 JUMPI JUMP JUMPDEST PUSH4 0x4E487B71 PUSH1 0xE0 SHL PUSH1 0x0 MSTORE PUSH1 0x22 PUSH1 0x4 MSTORE PUSH1 0x24 PUSH1 0x0 REVERT JUMPDEST SWAP2 PUSH1 0x7F AND SWAP2 PUSH2 0x666 JUMP JUMPDEST PUSH1 0x40 DUP2 ADD SWAP1 DUP2 LT PUSH8 0xFFFFFFFFFFFFFFFF DUP3 GT OR PUSH2 0x6AD JUMPI PUSH1 0x40 MSTORE JUMP JUMPDEST PUSH4 0x4E487B71 PUSH1 0xE0 SHL PUSH1 0x0 MSTORE PUSH1 0x41 PUSH1 0x4 MSTORE PUSH1 0x24 PUSH1 0x0 REVERT JUMPDEST SWAP1 PUSH1 0x1F DUP1 NOT SWAP2 ADD AND DUP2 ADD SWAP1 DUP2 LT PUSH8 0xFFFFFFFFFFFFFFFF DUP3 GT OR PUSH2 0x6AD JUMPI PUSH1 0x40 MSTORE JUMP JUMPDEST SWAP1 PUSH1 0x40 MLOAD SWAP2 DUP3 PUSH1 0x0 DUP3 SLOAD SWAP3 PUSH2 0x6F9 DUP5 PUSH2 0x657 JUMP JUMPDEST SWAP1 DUP2 DUP5 MSTORE PUSH1 0x1 SWAP5 DUP6 DUP2 AND SWAP1 DUP2 PUSH1 0x0 EQ PUSH2 0x768 JUMPI POP PUSH1 0x1 EQ PUSH2 0x725 JUMPI JUMPDEST POP POP PUSH2 0x723 SWAP3 POP SUB DUP4 PUSH2 0x6C3 JUMP JUMPDEST JUMP JUMPDEST SWAP1 SWAP4 SWAP2 POP PUSH1 0x0 MSTORE PUSH1 0x20 SWAP1 DUP2 PUSH1 0x0 KECCAK256 SWAP4 PUSH1 0x0 SWAP2 JUMPDEST DUP2 DUP4 LT PUSH2 0x750 JUMPI POP POP PUSH2 0x723 SWAP4 POP DUP3 ADD ADD CODESIZE DUP1 PUSH2 0x715 JUMP JUMPDEST DUP6 SLOAD DUP9 DUP5 ADD DUP6 ADD MSTORE SWAP5 DUP6 ADD SWAP5 DUP8 SWAP5 POP SWAP2 DUP4 ADD SWAP2 PUSH2 0x738 JUMP JUMPDEST SWAP2 POP POP PUSH2 0x723 SWAP5 POP PUSH1 0x20 SWAP3 POP PUSH1 0xFF NOT AND DUP3 DUP5 ADD MSTORE ISZERO ISZERO PUSH1 0x5 SHL DUP3 ADD ADD CODESIZE DUP1 PUSH2 0x715 JUMP JUMPDEST SWAP2 SWAP1 DUP3 MLOAD SWAP3 DUP4 DUP3 MSTORE PUSH1 0x0 JUMPDEST DUP5 DUP2 LT PUSH2 0x7B7 JUMPI POP POP DUP3 PUSH1 0x0 PUSH1 0x20 DUP1 SWAP5 SWAP6 DUP5 ADD ADD MSTORE PUSH1 0x1F DUP1 NOT SWAP2 ADD AND ADD ADD SWAP1 JUMP JUMPDEST PUSH1 0x20 DUP2 DUP4 ADD DUP2 ADD MLOAD DUP5 DUP4 ADD DUP3 ADD MSTORE ADD PUSH2 0x796 JUMP JUMPDEST PUSH1 0x3 SLOAD TIMESTAMP LT PUSH2 0x808 JUMPI PUSH1 0x4 SLOAD DUP1 TIMESTAMP LT ISZERO PUSH2 0x802 JUMPI TIMESTAMP DUP2 SUB SWAP1 DUP2 GT PUSH2 0x7EC JUMPI SWAP1 JUMP JUMPDEST PUSH4 0x4E487B71 PUSH1 0xE0 SHL PUSH1 0x0 MSTORE PUSH1 0x11 PUSH1 0x4 MSTORE PUSH1 0x24 PUSH1 0x0 REVERT JUMPDEST POP PUSH1 0x0 SWAP1 JUMP JUMPDEST PUSH1 0x40 MLOAD PUSH3 0x461BCD PUSH1 0xE5 SHL DUP2 MSTORE PUSH1 0x20 PUSH1 0x4 DUP3 ADD MSTORE PUSH1 0x1B PUSH1 0x24 DUP3 ADD MSTORE PUSH32 0x566F74696E6720686173206E6F742073746172746564207965742E0000000000 PUSH1 0x44 DUP3 ADD MSTORE PUSH1 0x64 SWAP1 REVERT INVALID LOG2 PUSH5 0x6970667358 0x22 SLT KECCAK256 POP CREATE2 0xD 0x4E 0x28 DUP5 0xF 0xA5 SWAP11 0x29 PUSH1 0xB0 GASLIMIT PUSH19 0x2D93678CD816E3F0B32A892138BA88F95BC464 PUSH20 0x6F6C634300081100330000000000000000000000 "},"methodIdentifiers":{"addCandidate(string)":"462e91ec","candidates(uint256)":"3477ee2e","getAllVotesOfCandiates()":"4d6bda5f","getRemainingTime()":"efb98bcf","getVotingStatus()":"581c281c","vote(uint256)":"0121b93f","voters(address)":"a3ec138d","votingEnd()":"85a38635","votingStart()":"101158af"}}}}}