{
  "_format": "hh-sol-artifact-1",
  "contractName": "Voting",
  "sourceName": "contracts/Voting.sol",
  "abi": [
    {
      "inputs": [
        {
          "internalType": "uint256",
          "name": "_durationInMinutes",
          "type": "uint256"
        }
      ],
      "stateMutability": "nonpayable",
      "type": "constructor"
    },
    {
      "inputs": [
        {
          "internalType": "string",
          "name": "_candidateNames",
          "type": "string"
        }
      ],
      "name": "addCandidate",
      "outputs": [],
      "stateMutability": "nonpayable",
      "type": "function"
    },
    {
      "inputs": [
        {
          "internalType": "uint256",
          "name": "",
          "type": "uint256"
        }
      ],
      "name": "candidates",
      "outputs": [
        {
          "internalType": "string",
          "name": "name",
          "type": "string"
        },
        {
          "internalType": "uint256",
          "name": "voteCount",
          "type": "uint256"
        }
      ],
      "stateMutability": "view",
      "type": "function"
    },
    {
      "inputs": [],
      "name": "getAllVotesOfCandiates",
      "outputs": [
        {
          "components": [
            {
              "internalType": "string",
              "name": "name",
              "type": "string"
            },
            {
              "internalType": "uint256",
              "name": "voteCount",
              "type": "uint256"
            }
          ],
          "internalType": "struct Voting.Candidate[]",
          "name": "",
          "type": "tuple[]"
        }
      ],
      "stateMutability": "view",
      "type": "function"
    },
    {
      "inputs": [],
      "name": "getRemainingTime",
      "outputs": [
        {
          "internalType": "uint256",
          "name": "",
          "type": "uint256"
        }
      ],
      "stateMutability": "view",
      "type": "function"
    },
    {
      "inputs": [],
      "name": "getVotingStatus",
      "outputs": [
        {
          "internalType": "bool",
          "name": "",
          "type": "bool"
        }
      ],
      "stateMutability": "view",
      "type": "function"
    },
    {
      "inputs": [
        {
          "internalType": "uint256",
          "name": "_candidateIndex",
          "type": "uint256"
        }
      ],
      "name": "vote",
      "outputs": [],
      "stateMutability": "nonpayable",
      "type": "function"
    },
    {
      "inputs": [
        {
          "internalType": "address",
          "name": "",
          "type": "address"
        }
      ],
      "name": "voters",
      "outputs": [
        {
          "internalType": "bool",
          "name": "",
          "type": "bool"
        }
      ],
      "stateMutability": "view",
      "type": "function"
    },
    {
      "inputs": [],
      "name": "votingEnd",
      "outputs": [
        {
          "internalType": "uint256",
          "name": "",
          "type": "uint256"
        }
      ],
      "stateMutability": "view",
      "type": "function"
    },
    {
      "inputs": [],
      "name": "votingStart",
      "outputs": [
        {
          "internalType": "uint256",
          "name": "",
          "type": "uint256"
        }
      ],
      "stateMutability": "view",
      "type": "function"
    }
  ],
  "bytecode": "0x60803461009957601f61093838819003918201601f19168301916001600160401b0383118484101761009e57808492602094604052833981010312610099575142600355603c810290808204603c149015171561008357420180421161008357600455600180546001600160a01b0319163317905560405161088390816100b58239f35b634e487b7160e01b600052601160045260246000fd5b600080fd5b634e487b7160e01b600052604160045260246000fdfe608060408181526004918236101561001657600080fd5b600092833560e01c9182630121b93f1461050357508163101158af146104e45781633477ee2e1461048b578163462e91ec146102725781634d6bda5f14610147578163581c281c1461010f57816385a38635146100f1578163a3ec138d146100ae575063efb98bcf1461008857600080fd5b346100aa57816003193601126100aa576020906100a36107cb565b9051908152f35b5080fd5b9050346100ed5760203660031901126100ed57356001600160a01b038116908190036100ed57818360ff92602095526002855220541690519015158152f35b8280fd5b9050346100ed57826003193601126100ed5760209250549051908152f35b919050346100ed57826003193601126100ed5760209250600354421015918261013c575b50519015158152f35b544210915038610133565b839150346100aa57816003193601126100aa5781549067ffffffffffffffff821161025f5750825191602092610182848460051b01826106c3565b82815281805283810192827f290decd9548b62a8d60345a988386fc84ba6bc95484008f6362f93160ef3e563855b83831061022557505050508451938085019181865251809252858501868360051b8701019493965b8388106101e55786860387f35b90919293948380600192603f198a8203018652885190828061020e84518985528985019061078b565b9301519101529701930197019690939291936101d8565b6002886001928b9a97989a5161023a81610691565b610243866106e5565b81528486015483820152815201920192019190969493966101b0565b634e487b7160e01b835260419052602482fd5b8383346100aa576020806003193601126100ed57833567ffffffffffffffff808211610487573660238301121561048757818601359381851161047457805194601f19936102c7601f830186168701886106c3565b8187523660248383010111610470578188926024889301838a01378701015251936102f185610691565b8452828401918583528554936801000000000000000085101561045d5761031e600195868101895561060a565b96909661044b5751908151938411610438579083929161033e8854610657565b601f81116103e4575b508092601f85116001146103845750508792610379575b5050600019600383901b1c191690831b1783555b5191015580f35b01519050868061035e565b87959392919316888a52838a20938a905b8282106103cb57505084116103b2575b505050811b018355610372565b015160001960f88460031b161c191690558680806103a5565b8484015186558997909501949384019390810190610395565b9091929350878952818920601f860160051c81019183871061042e575b869594939291601f8a920160051c01915b828110610420575050610347565b8b8155879650899101610412565b9091508190610401565b634e487b7160e01b885260418952602488fd5b634e487b7160e01b8852878952602488fd5b634e487b7160e01b875260418852602487fd5b8780fd5b634e487b7160e01b865260418752602486fd5b8480fd5b839150346100aa5760203660031901126100aa57359080548210156104e157506104b49061060a565b509060016104c1836106e5565b9201546104d7825193838594855284019061078b565b9060208301520390f35b80fd5b5050346100aa57816003193601126100aa576020906003549051908152f35b9091503461060657602036600319011261060657813590338552600260205260ff84862054166105c5575083548110156105825761054260019161060a565b500180549091600019821461056f5750600101905533825260026020528120600160ff1982541617905580f35b634e487b7160e01b855260119052602484fd5b506020606492519162461bcd60e51b8352820152601860248201527f496e76616c69642063616e64696461746520696e6465782e00000000000000006044820152fd5b62461bcd60e51b8152602083820152601760248201527f596f75206861766520616c726561647920766f7465642e0000000000000000006044820152606490fd5b8380fd5b9060009182548110156106435782805260011b7f290decd9548b62a8d60345a988386fc84ba6bc95484008f6362f93160ef3e563019190565b634e487b7160e01b83526032600452602483fd5b90600182811c92168015610687575b602083101461067157565b634e487b7160e01b600052602260045260246000fd5b91607f1691610666565b6040810190811067ffffffffffffffff8211176106ad57604052565b634e487b7160e01b600052604160045260246000fd5b90601f8019910116810190811067ffffffffffffffff8211176106ad57604052565b90604051918260008254926106f984610657565b9081845260019485811690816000146107685750600114610725575b5050610723925003836106c3565b565b9093915060005260209081600020936000915b81831061075057505061072393508201013880610715565b85548884018501529485019487945091830191610738565b91505061072394506020925060ff191682840152151560051b8201013880610715565b919082519283825260005b8481106107b7575050826000602080949584010152601f8019910116010190565b602081830181015184830182015201610796565b60035442106108085760045480421015610802574281039081116107ec5790565b634e487b7160e01b600052601160045260246000fd5b50600090565b60405162461bcd60e51b815260206004820152601b60248201527f566f74696e6720686173206e6f742073746172746564207965742e00000000006044820152606490fdfea264697066735822122050f50d4e28840fa59a2960b045722d93678cd816e3f0b32a892138ba88f95bc464736f6c63430008110033",
  "linkReferences": {},
  "deployedLinkReferences": {}
}